:100000000C942A000C9447000C9447000C94470071
:100010000C9447000C9447000C9447000C94470044
:100020000C9447000C9447000C944A030C9447002E
:100030000C9447000C9447000C9447000C94470024
:100040000C9447000C9447000C9447000C94470014
:100050000C94470011241FBECFE5D8E0DEBFCDBF12
:1000600010E0A0E6B0E0E2E4F8E002C005900D92F6
:10007000A43AB107D9F720E0A4EAB0E001C01D928C
:10008000A83CB207E1F70E946F030C941F040C9484
:10009000000080E487B986E886B9089597B1907E1C
:1000A0008770982B97B9369A3699FECF84B195B15F
:1000B000089580E00E944E00811524E0920780F4AC
:1000C0002FEF33E0281B390BA4E6B0E00E94FC03BD
:1000D0002FEF33E040E050E00E94DA03822F0895D2
:1000E00030E020E0F1CF10BC83E389B988E18AB920
:1000F00086E880BD08955D9BFECF8CB90895CF93AF
:10010000DF93EC018991811103C0DF91CF910895B4
:100110000E947B00F7CFCF92DF92EF92FF921F9366
:10012000CF93DF9300D000D000D01F92CDB7DEB7C1
:100130007C0197FF26C08DE20E947B00F194E19440
:10014000F108FE01319610E06F012AE030E01F5FF8
:10015000C701B9010E94C603805D81937B01672BB3
:1001600011F5115018F527960FB6F894DEBF0FBEA3
:10017000CDBFDF91CF911F91FF90EF90DF90CF9097
:100180000895892BF1F680E327960FB6F894DEBF29
:100190000FBECDBFDF91CF911F91FF90EF90DF9009
:1001A000CF900C947B00163091F6DBCFF601E10F77
:1001B000F11D80810E947B00D4CF8BB1881F8827DE
:1001C000881F08955F9BFECF8CB1089520E099B3FE
:1001D00092FB992790F9891302C081E0089592E07B
:1001E0009A95F1F700C02F5F2613F1CF80E00895B4
:1001F000AF92BF92CF92DF92EF92FF921F93CF9375
:10020000DF9300D000D01F92CDB7DEB7CE010196AC
:100210007C0185E0F70111928A95E9F7D29ADA9884
:100220008FE39CE90197F1F700C00000DA9AD298B9
:10023000DA9890E59A95F1F764E680E00E94E6008E
:10024000811112C060E070E080E00F900F900F907D
:100250000F900F90DF91CF911F91FF90EF90DF9063
:10026000CF90BF90AF90089564E681E00E94E600D1
:10027000882341F364E680E00E94E60015E0AA24AA
:10028000A394B12C8823F1F287E0C82ED12C66E428
:1002900081E00E94E6008823A9F2E0E5EA95F1F703
:1002A000CA9B11C0F701808195010C2C01C0220F5F
:1002B0000A94EAF7822B808362E380E00E94E600E2
:1002C000882309F4BFCFF1E0CF1AD10800F711500D
:1002D0009FEFE91AF90A1111D7CF79814B815D811E
:1002E0008A81870F9927991F9C01240F311D8C81CA
:1002F000820F932F911D99275817190621F4142F57
:1003000081E0612FA2CF80E070E0FBCF87B38760F0
:1003100087BB88B3836088BBC298D198D998089569
:1003200098B321E030E001C0220F8A95EAF7922BC2
:1003300098BB089598B321E030E001C0220F8A9560
:10034000EAF72095292328BB089598B321E030E0EF
:1003500001C0220F8A95EAF7922798BB089528B327
:1003600030E0A90102C0559547958A95E2F7CA0188
:100370008170089589B38695817008950E9449001F
:100380000E9473000E9486011092B2001092B10088
:100390001092A9001092A8001092A7001092A60037
:1003A0001092A5001092A40008958091B100909140
:1003B000B2008230910509F47DC058F4009709F429
:1003C00052C0019709F456C01092B2001092B100C9
:1003D00008958330910509F4B2C00497A9F789E61E
:1003E00090E00E947F008091AA0090E00E948B0024
:1003F0008CE690E00E947F008091AB0090E00E942C
:100400008B0081E790E00E947F008091AC0090E03B
:100410000E948B0086E790E00E947F008091B000F0
:100420008111B1C085E690E00E947F008BE790E0EB
:100430000E947F008091AE008111A8C085E690E007
:100440000E947F008FE790E00E947F008091AF00C4
:1004500081119FC085E690E00E947F0080EA90E0D5
:100460000E947F00B1CF81E090E09093B200809332
:10047000B10008950E9459008093AA000E94F800DC
:10048000882379F06093AB007093AC0060936100B7
:10049000709360000E94BA018093AD0082E090E00A
:1004A000E4CF809161008093AB00809160008093E5
:1004B000AC00F0CF2091A8003091A90021153105A2
:1004C000D9F48091AA00833220F481E08093AE00B9
:1004D00004C0833310F01092AE002091A60030913A
:1004E000A7002115310529F58091AB008F3150F01F
:1004F00081E08093AF000AC081E02130310531F303
:1005000080E0E4CF8B3110F41092AF002091A40072
:100510003091A5008091AD002115310529F081E0D1
:100520002130310509F080E08093B00083E090E055
:100530009CCF81E021303105E1F280E0DACF80917B
:10054000AE008823A1F080E00E949A018091AF0064
:10055000882389F081E00E949A018091B00088236D
:1005600071F082E00E94900184E090E07ECF80E014
:100570000E949001EBCF81E00E949001EECF82E0DB
:100580000E949A01F1CF82E690E04ECF82E690E0A1
:1005900057CF82E690E060CFCF93DF9300D000D0BA
:1005A00000D01F92CDB7DEB787E0EAEAF0E0DE01C7
:1005B000119601900D928A95E1F729813A814B813C
:1005C0005C816D817E818F8190E027960FB6F894D3
:1005D000DEBF0FBECDBFDF91CF910895FC018081BA
:1005E0008035C1F481818A3309F053C082818F3410
:1005F00009F04FC083818E3439F481E090E090930C
:10060000A9008093A8000895863409F042C082E0D2
:1006100090E0F5CF8634A9F481818A33D1F58281C7
:100620008F34B9F583818E3439F481E090E0909372
:10063000A7008093A6000895863459F582E090E0E3
:10064000F6CF8C34A9F481818A3319F582818F34F5
:1006500001F583818E3439F481E090E09093A50018
:100660008093A40008958634A1F482E090E0F6CF50
:10067000813479F481818A3361F41092A900109257
:10068000A8001092A7001092A6001092A500109248
:10069000A40008951F920F920FB60F9211248F930A
:1006A0009F93AF93BF938091B3009091B400A091BA
:1006B000B500B091B6000196A11DB11D8093B300A5
:1006C0009093B400A093B500B093B600BF91AF91E2
:1006D0009F918F910F900FBE0F901F9018950E94C1
:1006E000BE018BE083BF8CE78CBF89B7826089BF76
:1006F000789483E890E00E947F00C12CD12C760191
:100700000E94DD00811122C0F8948090B300909087
:10071000B400A090B500B090B6007894D501C401A3
:100720008C199D09AE09BF098C3D9540A105B10505
:1007300038F30E94D5010E94D5010E94D5010E9484
:10074000D5010E94D50175016401DACF0E94E20053
:10075000E091B7008A3011F08D3069F4EE2381F218
:10076000F0E0E854FF4F108288EB90E00E94EE0228
:100770001092B700C5CFEF3018F691E09E0F90931E
:10078000B700F0E0E854FF4F8083BACF97FB072E05
:1007900016F4009407D077FD09D00E940B0407FCE3
:1007A00005D03EF4909581959F4F08957095619581
:1007B0007F4F0895A1E21A2EAA1BBB1BFD010DC09D
:1007C000AA1FBB1FEE1FFF1FA217B307E407F50701
:1007D00020F0A21BB30BE40BF50B661F771F881FDD
:1007E000991F1A9469F760957095809590959B0173
:1007F000AC01BD01CF010895A29FB001B39FC0011C
:10080000A39F700D811D1124911DB29F700D811D3C
:100810001124911D0895AA1BBB1B51E107C0AA1FFB
:10082000BB1FA617B70710F0A61BB70B881F991F91
:100830005A95A9F780959095BC01CD010895F8943B
:02084000FFCFE8
:1008420032194F4E004F464600533A00252C543A77
:1008520000432C483A00252C4C3A002C503A002CEC
:10086200463A003D3D3D20536D61727420477265EA
:10087200656E686F7573652076312E30203D3D3D83
:040882000D0A00005B
:00000001FF
